:1000000045C0000058C0000056C0000054C00000A9
:1000100052C0000050C000004EC000004CC00000A4
:100020004AC0000048C0000046C0000044C00000B4
:1000300042C0000040C000003EC000003CC00000C4
:100040003AC0000038C0000036C0000034C00000D4
:1000500032C0000030C000002EC000002CC00000E4
:100060002AC0000028C0000026C0000024C00000F4
:1000700022C0000020C000001EC000001CC0000004
:100080001AC0000018C0000016C0000011241FBED6
:10009000CFEFD0E1DEBFCDBF11E0A0E0B1E0E8E1FD
:1000A000F2E000E00BBF02C007900D92A830B1074C
:1000B000D9F702D0AFC0A4CF12BA8FEF81BB80E0D6
:1000C00090E068EC70E016D02FEF34E34CE0215064
:1000D00030404040E1F700C0000068EC70E00AD01A
:1000E0002FEF34E34CE0215030404040E1F700C0B6
:1000F0000000E7CF8F929F92AF92BF92CF92DF9294
:10010000EF92FF920F931F93CF93DF93CDB7DEB79C
:1001100028970FB6F894DEBF0FBECDBF9C018B01B0
:1001200048E0E0E0F1E0CE010196DC0101900D92A3
:100130004A95E1F77901E0E0F0E0CC24DD24C61A2D
:10014000D70A44E0A42EB12C4C0123C017FF05C0F0
:10015000790181E0E81AF10807C00115110521F0C5
:1001600079019FEFE91AF90A42B3C701B5012BD013
:100170009C01DC01AA0FBB1FA80DB91D407F8C910B
:10018000482B42BB8FE19EE40197F1F700C00000CD
:100190003196C80117FDC601E817F907BCF2C9017D
:1001A00028960FB6F894DEBF0FBECDBFDF91CF917A
:1001B0001F910F91FF90EF90DF90CF90BF90AF9085
:1001C0009F908F90089597FB072E16F4009406D009
:1001D00077FD08D00BD007FC05D03EF490958195B3
:1001E0009F4F0895709561957F4F0895AA1BBB1B83
:1001F00051E107C0AA1FBB1FA617B70710F0A61B27
:10020000B70B881F991F5A95A9F780959095BC0147
:08021000CD010895F894FFCF21
:080218000600050009000A00C0
:00000001FF
