:1000000045C0000058C0000056C0000054C00000A9
:1000100052C0000050C000004EC000004CC00000A4
:100020004AC0000048C0000046C0000044C00000B4
:1000300042C0000040C000003EC000003CC00000C4
:100040003AC0000038C0000036C0000034C00000D4
:1000500032C0000030C000002EC000002CC00000E4
:100060002AC0000028C0000026C0000024C00000F4
:1000700022C0000020C000001EC000001CC0000004
:100080001AC0000018C0000016C0000011241FBED6
:10009000CFEFD0E1DEBFCDBF11E0A0E0B1E0E8ECF2
:1000A000F1E000E00BBF02C007900D92AA30B1074B
:1000B000D9F755D087C0A4CF1092900085E389B9B5
:1000C00088E18AB986E08093950008955D9BFECF14
:1000D0008CB908950F931F93CF93DF9316161706CD
:1000E00054F4C82FD92F8E01060F171F8991EEDF08
:1000F000C017D107D9F7DF91CF911F910F910895C4
:100100002FEF81EE94E0215080409040E1F700C055
:1001100000008FE9DBDF83E8D9DF8FE097E201970A
:10012000F1F700C0000085EAD1DF8FE19EE401977E
:10013000F1F700C000008FE19EE40197F1F700C0E5
:1001400000008EEFC3DF9FEF20E782E09150204058
:100150008040E1F700C0000080E090E0089512BA0E
:100160008FEF81BB13B882B92FEF84E39CE021505D
:1001700080409040E1F700C0000080E895E29CDFFD
:100180002FEF82E597E0215080409040E1F700C0DA
:100190000000B6DF2FEF80E792E0215080409040D2
:1001A000E1F700C0000068E070E080E091E092DFDD
:1001B0002FEF84E39CE0215080409040E1F700C0A5
:0801C0000000F1CFF894FFCF1D
:0A01C800594F5552204D4F4D0000D5
:00000001FF
