:1000000045C0000058C0000056C0000054C00000A9
:1000100052C0000050C000004EC000004CC00000A4
:100020004AC0000048C0000046C0000044C00000B4
:1000300042C0000040C000003EC000003CC00000C4
:100040003AC0000038C0000036C0000034C00000D4
:1000500032C0000030C000002EC000002CC00000E4
:100060002AC0000028C0000026C0000024C00000F4
:1000700022C0000020C000001EC000001CC0000004
:100080001AC0000018C0000016C0000011241FBED6
:10009000CFEFD0E1DEBFCDBF11E0A0E0B1E0E8EBF3
:1000A000F1E000E00BBF02C007900D92A031B10754
:1000B000D9F702D07FC0A4CF12BA8FEF81BB20E066
:1000C00030E067E37FEF822F932F17D02FEF34E3D9
:1000D0004CE0215030404040E1F700C0000069ECA6
:1000E00070E00BD09C018FEF94E34CE08150904086
:1000F0004040E1F700C00000E4CFEF92FF920F9381
:100100001F93CF93DF93CDB7DEB728970FB6F89440
:10011000DEBF0FBECDBFAC0188E0E0E0F1E0DE0164
:10012000119601900D928A95E1F7DA018B01772300
:1001300024F400271127061B170B1016110654F57F
:1001400020E030E077231CF4DA01119705C0161681
:10015000170614F4DA01119642B3CD018370992782
:10016000FC01EE0FFF1FEE24E394F12CEC0EFD1EBC
:10017000EE0DFF1D407F5081452B42BBAC018FE04F
:1001800097E20197F1F700C000002F5F3F4F201763
:100190003107C1F612BA842F952F28960FB6F8941E
:1001A000DEBF0FBECDBFDF91CF911F910F91FF90AA
:0801B000EF900895F894FFCFD1
:1001B8000600050009000A00600050009000A00039
:00000001FF
