:1000000045C0000058C0000056C0000054C00000A9
:1000100052C0000050C000004EC000004CC00000A4
:100020004AC0000048C0000046C0000044C00000B4
:1000300042C0000040C000003EC000003CC00000C4
:100040003AC0000038C0000036C0000034C00000D4
:1000500032C0000030C000002EC000002CC00000E4
:100060002AC0000028C0000026C0000024C00000F4
:1000700022C0000020C000001EC000001CC0000004
:100080001AC0000018C0000016C0000011241FBED6
:10009000CFEFD0E1DEBFCDBF11E0A0E0B1E0EAEAF2
:1000A000F1E000E00BBF02C007900D92A030B10755
:1000B000D9F730D078C0A4CF9C0140E050E060E296
:1000C00071EA87E090E032D02150310930939000FE
:1000D00029B988E18AB98EE08093950008955D9BE7
:1000E000FECF8CB9089583E294EF0197F1F700C039
:1000F00000008FE9F4DF83E8F2DF85EAF0DF8BE7C9
:1001000092E90197F1F700C000008EEFE8DF80E090
:1001100090E0089512BA8FEF81BB80E895E2CCDFC2
:10012000E2DF82E3DCDF80E090E00895052E97FBBC
:1001300016F4009406D057FD0CD013D007FC09D05C
:100140007EF490958095709561957F4F8F4F9F4F6E
:10015000089550954095309521953F4F4F4F5F4FF3
:100160000895A1E21A2EAA1BBB1BFD010DC0AA1FF8
:10017000BB1FEE1FFF1FA217B307E407F50720F010
:10018000A21BB30BE40BF50B661F771F881F991F8B
:100190001A9469F760957095809590959B01AC01D4
:0A01A000BD01CF010895F894FFCFD0
:00000001FF
