S019000053656E696F7250726F6A656374476F6F642E737265633B
S113000045C0000058C0000056C0000054C00000A5
S113001052C0000050C000004EC000004CC00000A0
S11300204AC0000048C0000046C0000044C00000B0
S113003042C0000040C000003EC000003CC00000C0
S11300403AC0000038C0000036C0000034C00000D0
S113005032C0000030C000002EC000002CC00000E0
S11300602AC0000028C0000026C0000024C00000F0
S113007022C0000020C000001EC000001CC0000000
S11300801AC0000018C0000016C0000011241FBED2
S1130090CFEFD0E1DEBFCDBF11E0A0E0B1E0E6E0FC
S11300A0F2E000E00BBF02C007900D92A431B1074B
S11300B0D9F75FD0A6C0A4CF1092900085E389B988
S11300C088E18AB986E08093950008955D9BFECF10
S11300D08CB908950F931F93CF93DF9316161706C9
S11300E054F4C82FD92F8E01060F171F8991EEDF04
S11300F0C017D107D9F7DF91CF911F910F910895C0
S11301002FEF81EE94E0215080409040E1F700C051
S113011000008FE9DBDF83E8D9DF8FE097E2019706
S1130120F1F700C0000085EAD1DF8FE19EE401977A
S1130130F1F700C000008FE19EE40197F1F700C0E1
S113014000008EEFC3DF9FEF20E782E09150204054
S11301508040E1F700C0000080E090E008958FE95E
S1130160B5DF8FEFB3DF80E0B1DF81E0AFDF8EEF8B
S1130170ADCF12BA8FEF81BB12B880EC83B92FEFE9
S113018084E39CE0215080409040E1F700C00000EF
S113019080E895E291DF2FEF82E597E021508040DF
S11301A09040E1F700C00000ABDF2FEF80E792E062
S11301B0215080409040E1F700C000006CE070E006
S11301C080E091E087DFCBDF0F990FC065E070E03E
S11301D08DE091E07FDF2FEF89E698E121508040A8
S11301E09040E1F700C00000EFCF82E66FDF2FEF11
S11301F089E698E1215080409040E1F700C000007A
S1090200E3CFF894FFCFE8
S11302064461746120506F696E74733F00626F6F4E
S1070216627300000B
S9030000FC
