S019000053656E696F7250726F6A656374476F6F642E737265633B
S113000045C0000058C0000056C0000054C00000A5
S113001052C0000050C000004EC000004CC00000A0
S11300204AC0000048C0000046C0000044C00000B0
S113003042C0000040C000003EC000003CC00000C0
S11300403AC0000038C0000036C0000034C00000D0
S113005032C000003BC000002EC000002CC00000D5
S11300602AC0000028C0000026C0000024C00000F0
S113007022C0000020C000001EC000001CC0000000
S11300801AC0000018C0000016C0000011241FBED2
S1130090CFEFD0E1DEBFCDBF11E0A0E0B1E0E8E8F2
S11300A0F3E000E00BBF02C007900D92A632B10747
S11300B0D9F78DD067C1A4CF86B1876086B93E9A3F
S11300C03D9A359A0895379A369A08951F920F9259
S11300D00FB60F9211240F900FBE0F901F9018951A
S11300E01092900085E389B988E18AB986E080930B
S11300F0950008955D9BFECF8CB908950F931F93CF
S1130100CF93DF931616170654F4C82FD92F8E01F8
S1130110060F171F8991EEDFC017D107D9F7DF91BA
S1130120CF911F910F9108952FEF81EE94E021500C
S113013080409040E1F700C000008FE9DBDF83E8F6
S1130140D9DF8FE097E20197F1F700C0000085EA5C
S1130150D1DF8FE19EE40197F1F700C000008FE149
S11301609EE40197F1F700C000008EEFC3DF9FEF1C
S113017020E782E0915020408040E1F700C0000079
S113018080E090E008958FE9B5DF8FEFB3DF80E082
S1130190B1DF81E0AFDF8EEFADCF8FE9ABDF8FE072
S11301A097E20197F1F700C0000085E6A3DF8FE036
S11301B097E20197F1F700C0000085E69BDF8FE02E
S11301C097E20197F1F700C000008EEF93CFCF9331
S11301D0DF93CDB7DEB76C970FB6F894DEBF0FBED2
S11301E0CDBF80E091E09A83898384E091E09C8391
S11301F08B8388E091E09E838D838CE091E09887E7
S11302008F8315BA8FEF84BB12B880EC83B92FEFBC
S113021084E39CE0215080409040E1F700C000005E
S113022080E895E25DDF48DF7FDF2FEF80E792E033
S1130230215080409040E1F700C000006CE070E085
S113024080E191E05BDF9FDF00E010E0E12CF12C26
S11302500F991EC0F801EE0FFF1F81E090E08C0F94
S11302609D1FE80FF91F63E070E08081918146DFF4
S11302700F5F1F4F88DF043011050CF087019FEFDB
S113028029E688E1915020408040E1F700C0000059
S11302900E99DECF82DF8FE097E20197F1F700C07D
S11302A0000068E070E08DE191E028DF9FEF23ED2E
S11302B080E3915020408040E1F700C0000003DF5C
S11302C08E01075F1F4F85B185B14AE050E0B80148
S11302D090E015D0F80101900020E9F73197BF01B3
S11302E0601B710BC8010ADF9FEF21E18AE791507F
S11302F020408040E1F700C000004FDFE4CFFB0165
S11303009F01E8944230BCF04532ACF44A3029F401
S113031097FB1EF4909581959F4F642F77271ED0ED
S1130320805D8A330CF0895D8193CB010097A9F736
S113033016F45DE251931082C90100C0DC01FC0196
S1130340672F71917723E1F7329704C07C916D9305
S113035070836291AE17BF07C8F30895AA1BBB1B35
S113036051E107C0AA1FBB1FA617B70710F0A61BB1
S1130370B70B881F991F5A95A9F780959095BC01D2
S10B0380CD010895F894FFCFAC
S11303883130300032303000353030003930300010
S11303984461746120506F696E74733A0052756ECB
S10903A86E696E6721007E
S9030000FC
